:020000040000FA
:1000000040C064C063C062C061C060C05FC05EC009
:100010005DC0ECC15BC0B8C192C158C057C056C0EA
:1000200055C054C053C000000000380035003200F5
:1000300000000000370034003100000000003600EE
:100040003300300004040404040404040202020225
:10005000020203030303030301020408102040808B
:100060000102040810200102040810200000000012
:100070000000000000030406000000000000000073
:10008000180311241FBECFE5D4E0DEBFCDBF10E0C2
:10009000A0E6B0E0E6E9F6E002C005900D92AA37CE
:1000A000B107D9F721E0AAE7B0E001C01D92A03264
:1000B000B207E1F710E0C1E4D0E003C02197FE01F0
:1000C000E2D2C034D107D1F7DBD1E3C299CFAF92EE
:1000D000BF92CF92DF92EF92FF920F931F93CF9335
:1000E000DF936C017B018B01040F151FEB015E0197
:1000F000AE18BF08C017D10759F06991D601ED912C
:10010000FC910190F081E02DC6010995892B79F7CA
:10011000C501DF91CF911F910F91FF90EF90DF907C
:10012000CF90BF90AF900895FC01538D448D252F43
:1001300030E0842F90E0821B930B541710F0CF9681
:10014000089501970895FC01918D828D981761F0B3
:10015000A28DAE0FBF2FB11D5D968C91928D9F5FCA
:100160009F73928F90E008958FEF9FEF0895FC01A9
:10017000918D828D981731F0828DE80FF11D858D5C
:1001800090E008958FEF9FEF0895FC01918D228DEF
:10019000892F90E0805C9F4F821B91098F73992774
:1001A000089583E890E0F1DF21E0892B09F420E055
:1001B000822F089580E090E0892B19F0F2DF811101
:1001C0001FCF0895FC01A48DA80FB92FB11DA35A0C
:1001D000BF4F2C91848D90E001968F739927848F67
:1001E000A689B7892C93A089B1898C9182748C934C
:1001F000938D848D981306C00288F389E02D808149
:100200008F7D80830895EF92FF920F931F93CF937A
:10021000DF93EC0181E0888F9B8D8C8D981319C042
:10022000E889F989808185FF14C09FB7F894EE8929
:10023000FF896083E889F9898081827480839FBF08
:1002400081E090E0DF91CF911F910F91FF90EF90AF
:100250000895F62E0B8D10E00F5F1F4F0F731127BF
:10026000E02E8C8D8E110BC00FB607FCFACFE889FB
:10027000F989808185FFF5CFCE01A4DFF2CFEB8D28
:10028000EC0FFD2FF11DE35AFF4FF0829FB7F8945A
:100290000B8FEA89FB8980818062D0CFCF93DF9377
:1002A000EC01888D8823B1F0AA89BB89E889F98996
:1002B0008C9185FD03C0808186FD0CC00FB607FCC4
:1002C000F7CF8C9185FFF2CF808185FFEDCFCE01F6
:1002D00079DFEACFDF91CF9108953FB7F89480910D
:1002E0007F0090918000A0918100B091820022B7A0
:1002F00008B600FE05C02F3F19F00196A11DB11DE3
:100300003FBFBA2FA92F982F8827BC01CD01620FBC
:10031000711D811D911D43E0660F771F881F991F76
:100320004A95D1F70895FC0101900020E9F7319733
:10033000AF01481B590BBC0183E890E0C8CE1F9267
:100340000F920FB60F9211242F933F934F935F9309
:100350006F937F938F939F93AF93BF93EF93FF938D
:1003600083E890E02FDFFF91EF91BF91AF919F91D4
:100370008F917F916F915F914F913F912F910F904E
:100380000FBE0F901F9018951F920F920FB60F92ED
:1003900011242F938F939F93EF93FF93E0919300FA
:1003A000F09194008081E0919900F0919A0082FD93
:1003B0001BC0908180919C008F5F8F7320919D0066
:1003C000821741F0E0919C00F0E0ED57FF4F958FD0
:1003D00080939C00FF91EF919F918F912F910F90AF
:1003E0000FBE0F901F9018958081F4CF1F920F922F
:1003F0000FB60F9211242F933F938F939F93AF9338
:10040000BF9380917B0090917C00A0917D00B09182
:100410007E0030917A0026E0230F2D3758F50296A2
:10042000A11DB11D20937A0080937B0090937C00E6
:10043000A0937D00B0937E0080917F00909180001A
:10044000A0918100B09182000196A11DB11D809301
:100450007F0090938000A0938100B0938200BF91B1
:10046000AF919F918F913F912F910F900FBE0F9061
:100470001F90189529E8230F0396A11DB11DD2CF17
:10048000CF93DF93CDB7DEB7A1970FB6F894DEBF59
:100490000FBECDBF789483B7826083BF83B781607E
:1004A00083BF89B7816089BF1EBC8EB582608EBD57
:1004B0008EB581608EBD8FB581608FBD85B584603E
:1004C00085BD85B5806485BD329A319A3098379A5A
:1004D0001AB8E0919300F091940082E08083E0915B
:1004E0008F00F09190001082E0919100F0919200C5
:1004F00087E6808310929B00E0919700F09198002E
:1005000086E88083E0919500F0919600808180617B
:100510008083E0919500F0919600808188608083CF
:10052000E0919500F0919600808180688083E09151
:100530009500F091960080818F7D80830AE510E020
:10054000F801249146E4E42E40E0F42EF701849172
:100550008823C9F090E0880F991FFC01E05DFF4FF0
:10056000A591B491FC01EA5DFF4F459154913FB7CD
:10057000F8949C91822F809598239C93FA01908106
:10058000892380833FBF9EE6C92E90E0D92E20E0CC
:10059000A22E20E0B22E82E790E0C5DE87E790E051
:1005A000C2DEF6018491F8019491F701249122238F
:1005B000B9F0882349F08430A1F18630A9F1833065
:1005C00019F48FB58F778FBDE22FF0E0EE0FFF1F8C
:1005D000E65CFF4FA591B4918C91982381E009F4DA
:1005E00080E019A2805D88A3CE0180969CDE87E71B
:1005F00090E099DE72DE2B013C016FDE6419750913
:1006000086099709683E734081059105B0F3A114EE
:10061000B10409F4C0CFC5DD882309F4BCCFF0DCF8
:10062000BACF8FB58F7DCFCF85B58F7D85BDCCCF30
:10063000E3E8F0E01382128288EE93E0A0E0B0E0FD
:1006400084839583A683B78384E690E09183808337
:1006500080E490E09587848729E230E03787268719
:100660002BE230E0318B208B2AE230E0338B228B7F
:10067000958B848B8CE290E0978B868B118E128EFB
:10068000138E148E0895EE0FFF1F0590F491E02D48
:100690000994F894FFCF0000000003016700940064
:1006A0004E01C500A300B70074657374000D0A0005
:101E000011248FE594E09EBF8DBF84B714BE81FF7F
:101E1000E2D085E08EBD82E08BB988E18AB986E8A0
:101E200080BD80E189B98EE0C2D0BD9A96E020E302
:101E30003CEF54E040E23DBD2CBD58BF08B602FE69
:101E4000FDCF88B3842788BBA8959150A1F7CC24F7
:101E5000DD2488248394B5E0AB2EA1E19A2EF3E033
:101E6000BF2E9ED0813461F49BD0082FA4D00238BD
:101E700011F0013811F484E001C083E08DD089C0F5
:101E8000823411F484E103C0853419F485E09BD0D9
:101E900080C0853579F484D0E82EFF2481D0082FC6
:101EA00010E0102F00270E291F29000F111F83D0CB
:101EB00068016FC0863521F484E085D080E0DECFF4
:101EC000843609F040C06CD06BD0082F69D080E018
:101ED000C81688E1D80618F4F601B7BEE895C0E048
:101EE000D1E05ED089930C17E1F7F0E0CF16F8E16E
:101EF000DF0618F0F601B7BEE8955DD007B600FC26
:101F0000FDCFA601A0E0B1E02C9130E011968C91BC
:101F1000119790E0982F8827822B932B1296FA0125
:101F20000C0187BEE89511244E5F5F4FF1E0A034AD
:101F3000BF0751F7F601A7BEE89507B600FCFDCF35
:101F400097BEE89526C08437B1F42AD029D0F82E60
:101F500027D031D0F601EF2C8F010F5F1F4F8491F6
:101F60001BD0EA94F801C1F70894C11CD11CFA9463
:101F7000CF0CD11C0EC0853739F41DD08EE10CD0AA
:101F800083E90AD087E07ACF813511F488E00FD059
:101F900012D080E101D065CF5D9BFECF8CB9089552
:101FA0005F9BFECF5C9901C0A8958CB1089598E124
:101FB00091BD81BD0895F4DF803219F088E0F7DF2C
:101FC000FFCF84E1E9CF1F93182FEADF1150E9F723
:101FD000F2DF1F91089580E0EADFEE27FF270994E2
:021FFE000404D9
:00000001FF
