:1000000012C02CC02BC02AC072C128C027C026C075
:100010005DC135C123C022C021C020C01FC01EC089
:100020001DC01CC01BC011241FBECFE5D4E0DEBF25
:10003000CDBF11E0A0E6B0E0E0EBFDE002C005902E
:100040000D92AE30B107D9F711E0AEE0B1E001C0DA
:100050001D92A134B107E1F7B8D4A8C6D1CF9C0155
:10006000E199FECF3FBB2EBBE09A8DB308959C0172
:10007000E199FECF3FBB2EBB6DBB0FB6F894E29A61
:10008000E19A0FBE089595B39F7C95BB91B39F6095
:1000900091BB92B3907F92BB2AE0922F9A95F1F791
:1000A00092B382958F70982B92BBAD9A2A95F1F7F7
:1000B000AD9880E29EE40197F1F70895AD9891B371
:1000C0009F6091BB3AE0932F9A95F1F792B3907F9E
:1000D00092BB22B3982F92959F70922B92BB932F35
:1000E0009A95F1F7AD9A932F9A95F1F7AD98932FD2
:1000F0009A95F1F792B3907F92BB92B38F70982B41
:1001000092BBAD9A3A95F1F7AD9880EA9FE00197DE
:10011000F1F70895AC9AD2DF0895AC98CFDF089537
:100120000F931F93182F062FE6E6F0E0E60FF11D60
:100130008081810FF2DF10930E0100930F011F9158
:100140000F910895883A11F482EA03C0883B09F4BC
:1001500085EBE0DF80910E018F5F80930E0180318F
:1001600079F410920E0180910F018F5F80930F013F
:10017000823011F410920F0180E060910F01D0DF06
:100180000895CF93DF93EC0102C0DCDF21968881D4
:100190008823D9F7DF91CF91089582E0BEDF8CE00C
:1001A000BCDF81E0BADF089585B38F7C85BB84B363
:1001B000806384BB82B3807F82BB81B3807F81BB3D
:1001C00084EF91E028EC30E0F9013197F1F70197E5
:1001D000D9F782B381B38F6081BB80E980936800D7
:1001E00082EC8093690080E34EDF80E34CDF80E3A4
:1001F0004ADF80E248DF88E290DF88E08EDF81E03E
:100200008CDF84E08ADFC9DF089510923D011092EF
:100210003E0110923F0110924001869B02C081E096
:1002200001C082E080931A012FB7F89410923A012E
:1002300010922601109225011092210110922001A6
:100240001092180191E09093190112BE1DBC1CBCC4
:1002500017BC16BC86E083BF9EBD2FBF789488B7BD
:10026000806288BF08B605FEFDCF86B597B590932E
:1002700026018093250188B7806288BF08951F9268
:100280000F920FB60F9211248F939F9380911701B5
:100290008F5F8093170186B597B590932101809366
:1002A000200180911701883050F01092170181E0F1
:1002B0008093180113BE1EBC88B7806288BF9F91CF
:1002C0008F910F900FBE0F901F9018951F920F9255
:1002D0000FB60F9211248F9380913A018F5F809314
:1002E0003A018F910F900FBE0F901F9018951F929B
:1002F0000F920FB60F9211248F939F9380911E013E
:1003000090911F01892B49F080911E0190911F014E
:10031000019790931F0180931E0180911D018823F6
:1003200029F080911D01815080931D0193B3969512
:10033000969590959170B19B92609923C9F08091A8
:100340001601981729F08EE180931D0190931601F4
:1003500080911D01882329F4809116018068809383
:10036000160180E092E090931F0180931E0102C06D
:1003700010921D0180912301909124010196909388
:100380002401809323019F918F910F900FBE0F90B6
:100390001F9018959F92AF92BF92CF92DF92EF92EB
:1003A000FF920F931F93CF93DF939924AA24BB242A
:1003B0006501C8ECD0E0109218011092190180ED8F
:1003C00097E0FE013197F1F70197D9F71EDF809191
:1003D00018018823E1F380913A01E0902001F09028
:1003E0002101209125013091260190E0A0E0B0E0AC
:1003F000DC019927882740E050E0821B930BA40B77
:10040000B50B00E010E08E0D9F1DA01FB11F23E073
:10041000B695A795979587952A95D1F780933D0135
:1004200090933E01A0933F01B0934001A80EB91EE6
:10043000CA1EDB1E939488E0981609F0BCCF83E0B7
:10044000D694C794B794A7948A95D1F7A0923D010A
:10045000B0923E01C0923F01D0924001DF91CF9116
:100460001F910F91FF90EF90DF90CF90BF90AF90D2
:100470009F900895AF92BF92CF92DF920F93DF9338
:10048000CF9300D000D0CDB7DEB75C016B012091D7
:100490003D0130913E0140913F015091400120309B
:1004A00080E0380780E4480780E0580718F400E04F
:1004B00081E00AC081E08093220149C056954795AA
:1004C00037952795082F8F5F203090E0390791E00E
:1004D000490790E0590790F7CA01B90126D496015F
:1004E00040E050E029833A834B835C833DD4CA01CA
:1004F000CC24DD24B901A601950117D429813A81C4
:100500004B815C8131D4C901DA01000F04C0880F2E
:10051000991FAA1FBB1F0A95D2F7A816B906CA06CB
:10052000DB0668F48A199B09AC09BD0980931001A8
:1005300090931101A0931201B093130108C010927F
:1005400010011092110110921201109213010F90DC
:100550000F900F900F90CF91DF910F91DF90CF9080
:10056000BF90AF900895DF92EF92FF920F931F9389
:1005700020913D0130913E0140913F015091400159
:10058000203080E0380780E4480780E0580718F4FE
:10059000DD2481E00AC081E0809322014CC05695A1
:1005A000479537952795D82E8F5F203090E03907F3
:1005B00091E0490790E0590790F7CA01B901B5D316
:1005C000E0903801F090390100E010E0A8019701B7
:1005D000CBD3B901CA014D2D50E022273327241B6C
:1005E000350B241B350B285F3F4F04C0660F771F68
:1005F000881F991F2A95D2F7A8019701B5D360915A
:100600001B0170911C0180E090E0CB0177276627E9
:10061000205031404040504040E050E0A5D3232FCF
:10062000342F452F5527209310013093110140930B
:100630001201509313011F910F91FF90EF90DF90E3
:100640000895209138013091390140E050E0CA010D
:10065000B9016BD324E630E040E050E066D329EEE8
:100660003DE940E050E080D3CA01B90120E137E222
:1006700040E050E05AD3209114013091150140E040
:1006800050E072D3C901DA012CE0B695A795979591
:1006900087952A95D1F78093100190931101A0932B
:1006A0001201B093130108951F93182F80E061E0A9
:1006B00037DD89E890E065DD80E061E031DDE12F44
:1006C000F0E0EE0FFF1FEC5FFE4F8081918159DD5E
:1006D0001F910895E9DF80E29EE428EC30E0F90103
:1006E0003197F1F70197D9F79598FECF0F931F93A4
:1006F000609138017091390107E310E086E090E0E5
:10070000A801BCD2609114017091150182E090E0C3
:10071000A801B4D260913B0170913C0184E090E06B
:10072000A801ACD260911B0170911C0180E090E0A7
:10073000A801A4D21F910F91089580E061E0F0DC40
:1007400089E890E01EDD80911A01823011F483E087
:10075000C1DF15BC80E061E0E3DC89EB90E011DDF6
:1007600019DE60913D0170913E01709339016093F3
:10077000380180911401909115017CDE979A88E8E8
:1007800093E128EC30E0F9013197F1F70197D9F7BF
:1007900001DE9798E8DE809110019091110190930D
:1007A0001501809314014DDF80911001909111018A
:1007B00090933C0180933B0199DF8CE061E0B0DCD9
:1007C0008AE990E0DEDC80E197E228EC30E0F90194
:1007D0003197F1F70197D9F79598FECFEF92FF92F5
:1007E0000F931F93CF93DF9386E090E06FE270E06A
:1007F0002FD28C01909339018093380182E090E0F0
:100800006FE270E025D27C01909315018093140172
:1008100084E090E06FE270E01BD2EC0190933C0129
:1008200080933B0180E090E06FE270E011D29C0188
:1008300090931C0180931B01015010400E5F1F4FCD
:1008400030F080E19EE09093390180933801089464
:10085000E108F1088EEFE8168FEFF80630F08CED26
:1008600095E090931501809314012197CE5FDF4F9F
:1008700030F088E390E090933C0180933B0121505D
:1008800030402E5F3F4F30F080E197E290931C01A3
:1008900080931B01DF91CF911F910F91FF90EF90FB
:1008A0000895EF92FF920F931F93CF93DF93809160
:1008B0001A01813039F0C0E6D0E07DE6E72E65E729
:1008C000F62E06C0C3E6D0E05EE6E52E40E7F42E45
:1008D00080912201882321F080912201FBDE6EC0ED
:1008E00080E061E01DDC89E890E04BDC6091100164
:1008F000709111018091120190911301603127E2F2
:10090000720720E0820720E09207B8F407E211E0C6
:10091000A8012AE030E0C7D1F80101900020E9F7F2
:100920008F010150104007521140E02FF0E0E95DC7
:10093000FE4F80E28083F2822FC0603AF6E87F07A4
:10094000F1E08F07F0E09F0718F524E630E040E083
:1009500050E00AD207E211E0CA01B901A8012AE079
:1009600030E0A1D1F80101900020E9F78F0101509A
:10097000104007521140E02FF0E0DF01AA5DBE4FAA
:100980009C918CE28C93E95DFE4F9083E28204C0DF
:1009900081E08093220112C0E02FF0E0E95DFE4F7C
:1009A00080E28183888183838981848315828BE0BF
:1009B000801B61E0B5DB87E291E0E3DBDF91CF9163
:1009C0001F910F91FF90EF900895CF92DF92EF92D9
:1009D000FF920F931F93CF93DF931092220180E039
:1009E00092E090931F0180931E01109217011092C4
:1009F0002401109223011092180180911801809314
:100A0000190110923D0110923E0110923F01109287
:100A1000400112BA11BA8C989A9AAA9AA298869A08
:100A2000969A8E98B19AC19A89988D9A8F9A959A2A
:100A30009798BADB86E086B983EC87B9379A369AFD
:100A40003699FECF20E030E040E0369A3699FECF6E
:100A500084B195B1280F391F4F5F4031B1F7C901FB
:100A600024E0969587952A95E1F722E08A38920747
:100A700048F58855924070F48EE990E082DB80E181
:100A800097E228EC30E0F9013197F1F70197D9F7B7
:100A90009598FECF80E060E043DB8CEA90E071DB6C
:100AA00088E893E128EC30E0F9013197F1F70197FC
:100AB000D9F780E060E034DB89E890E062DB80E039
:100AC00060E02EDB16B885E489BF12BE13BE1DBCE4
:100AD0001CBC1FBC1EBC14BC15BC80B7826080BF90
:100AE00080E890E04EDB80E29EE40197F1F776DE4D
:100AF00087E085BD789408ECC02ED12C8091190137
:100B0000882309F482DB90911601992369F0809182
:100B10001D01882349F4913011F477DB03C0923032
:100B200009F40BDE1092160180911A01823019F03F
:100B3000C2E7D0E002C0C9E7D0E089E060E0F0DAC7
:100B4000CE011FDB80911801882309F446C06FB7DE
:100B5000F89480913A01E0902001F09021012091D9
:100B600025013091260190E0A0E0B0E0DC0199275A
:100B7000882740E050E0821B930BA40BB50B00E0EC
:100B800010E08E0D9F1DA01FB11FF3E0B695A79535
:100B900097958795FA95D1F780933D0190933E0103
:100BA000A0933F01B09340011092180110921901D7
:100BB0006FBF789480911A0160913801709139016A
:100BC000823029F480913B0190913C0104C08091D6
:100BD0001401909115014EDC64DE80ED97E0F60182
:100BE0003197F1F70197D9F780911E0190911F017C
:100BF0008158914020F520913D0130913E01409176
:100C00003F015091400180913801909139019695B2
:100C1000879596958795A0E0B0E0281739074A0791
:100C20005B0768F480911A01823011F43DDD07C042
:100C3000211531054105510511F084E04BDD80910E
:100C40001E0190911F01892B09F058CF9598FECF76
:100C5000DF92EF92FF920F931F937B018C01FB01B8
:100C60000995D82EC8010196F7010995982F8D2D69
:100C70001F910F91FF90EF90DF900895DF92EF9218
:100C8000FF920F931F93D72E7A018C01FA010995D9
:100C9000C80101966D2DF70109951F910F91FF90E5
:100CA000EF90DF900895FA01CF93FF93EF932230F6
:100CB0003CF125322CF5C22FE894CA3049F497FB59
:100CC0003EF490958095709561957F4F8F4F9F4F23
:100CD0002C2F332744275527FF93EF9345D0EF91CF
:100CE000FF91605D6A330CF0695D6193B901CA01DF
:100CF000605070408040904059F716F4CDE2C193A7
:100D000010828F919F91CF9100C0DC01FC01672F71
:100D100071917723E1F7329704C07C916D937083D2
:100D20006291AE17BF07C8F30895629FD001739F09
:100D3000F001829FE00DF11D649FE00DF11D929F77
:100D4000F00D839FF00D749FF00D659FF00D9927B6
:100D5000729FB00DE11DF91F639FB00DE11DF91FDA
:100D6000BD01CF0111240895A1E21A2EAA1BBB1BBD
:100D7000FD010DC0AA1FBB1FEE1FFF1FA217B30767
:100D8000E407F50720F0A21BB30BE40BF50B661F7D
:100D9000771F881F991F1A9469F760957095809541
:100DA00090959B01AC01BD01CF010895F894FFCF50
:100DB000486E0046200080C000001027E803640051
:100DC0000A0043415020202000494E44554354001E
:100DD0004C432D6D6574657200202020202020205A
:100DE00020202020202020202000204F4B00426186
:100DF000747465727920656D7074790042617474E1
:100E0000657279207765616B0043616C696272611C
:100E100074696E6700004552524F523A204F564552
:100E2000524C4F4144004552524F523A204E4F20AF
:100E3000494E44554354004552524F523A204C2D8E
:100E40004D4F4445004552524F523A20554E4B4E5D
:0E0E50004F574E00C500C600D600E700F50063
:00000001FF
